S00B00004C43442E7372656346
S113000012C02CC02BC02AC029C028C027C026C0BB
S113001025C024C023C022C021C020C01FC01EC0D0
S11300201DC01CC01BC011241FBECFE5D4E0DEBF21
S1130030CDBF10E0A0E6B0E0E4EEF2E002C005902F
S11300400D92A038B107D9F720E0A0E8B0E001C0D4
S11300501D92A838B207E1F7D6D042C1D1CFC29AD7
S113006082E08A95F1F700C0C2980895CF93C82F13
S1130070662311F0C09A01C0C098C198BC9ABD9A79
S1130080BE9ABF9AC798C698C598C498CC230CF456
S1130090C79AC6FDC69AC5FDC59AC4FDC49ADFDFDA
S11300A0C798C698C598C498C3FDC79AC2FDC69A96
S11300B0C1FDC59AC0FDC49AD2DFC49AC59AC69A36
S11300C0C79ACF910895882311F0C09A01C0C098AF
S11300D0C19ABC98BD98BE98BF98C29A82E08A958E
S11300E0F1F700C0B49B02C080E101C080E0B59983
S11300F08062B6998064B7998068C29892E09A95B4
S1130100F1F700C0C29A92E09A95F1F700C0B49951
S11301108160B5998260B6998460B7998860C29805
S1130120089580E0D0DF8823E4F38AE08A95F1F72C
S113013000C080E0C8DF0895CF93C82FF2DF60E0ED
S11301408C2F94DFCF910895611103C08058F4DFA0
S113015008958054F1DF089581E0EEDF0895CF9390
S1130160C82FDFDFCA3041F4803410F080E001C0D2
S113017080E48058E1DF03C061E08C2F77DFCF910A
S11301800895CF93DF93EC012196FC0180818823AD
S113019021F0E5DF89918111FCCFDF91CF910895A2
S11301A0CF93C82FB89AB99ABA9ABC9ABD9ABE9AF4
S11301B0BF9A8FEF9CE70197F1F700C00000C59A42
S11301C0C49A4DDF8FE097E20197F1F700C0000079
S11301D046DF9AEA9A95F1F700C041DF8AEA8A95E8
S11301E0F1F700C0C4983BDF9AEA9A95F1F700C092
S11301F088E2A2DF88E0A0DFAFDF86E09DDF8C2FFE
S11302009BDFCF91089587B3876F87BB8CE0C8DFEE
S1130210A3DF60E080E098DF80E690E0B2DF61E099
S113022080E092DF81E790E0ACDF4AE062E870E0D2
S1130230809180009091810020D08EDF60E080E08A
S113024083DF80E690E09DDF61E080E07DDF82E88F
S113025090E097DF809180009091810001969093C7
S11302608100809380002FEF80E792E0215080404E
S11302709040E1F700C00000D8CFBB274A3031F4EA
S1130280992322F4BDE2909581959F4F01C0BB272D
S1130290FB015527AA27880F991FAA1FA41710F03E
S11302A0A41B83955051B9F7A05DAA3308F0A95D4A
S11302B0A193009779F7B111B1931192CB0100C0CA
S11302C0DC01FC01672F71917723E1F7329704C0B9
S11302D07C916D9370836291AE17BF07C8F3089544
S10702E0F894FFCFBC
S11302E43D3D3D3D3D2054455354203D3D3D3D3D24
S11302F4004C6971756964204372797374616C008C
S9030000FC
